:020000040800F2
:10000000C806002089010008DF110008BD100008A3
:10001000DD1100088F020008A31300080000000093
:10002000000000000000000000000000E3110008D4
:100030009102000800000000E11100081D120008F4
:10004000A3010008A3010008A3010008A301000800
:10005000A3010008A3010008A3010008A3010008F0
:10006000A3010008A3010008A3010008A3010008E0
:10007000A3010008A3010008A3010008A3010008D0
:10008000A3010008A3010008A3010008A3010008C0
:10009000A3010008A3010008A3010008A3010008B0
:1000A000A3010008A3010008A301000881120008B1
:1000B000A3010008A3010008A3010008A301000890
:1000C000A3010008A3010008A3010008A301000880
:1000D000A3010008A3010008A3010008A301000870
:1000E000A3010008A3010008A301000800F002F822
:1000F00000F03AF80AA090E8000C82448344AAF188
:100100000107DA4501D100F02FF8AFF2090EBAE885
:100110000F0013F0010F18BFFB1A43F0010318473B
:100120005815000078150000103A24BF78C878C12F
:10013000FAD8520724BF30C830C144BF04680C60ED
:10014000704700000023002400250026103A28BF35
:1001500078C1FBD8520728BF30C148BF0B60704739
:100160001FB51FBD10B510BD00F058F81146FFF7C0
:10017000F7FF01F027F900F076F803B4FFF7F2FF7C
:1001800003BC00F07DF8000009488047094800479B
:10019000FEE7FEE7FEE7FEE7FEE7FEE7FEE7FEE737
:1001A000FEE7FEE704480549054A064B7047000094
:1001B0007F120008ED000008C8000020C8060020DB
:1001C000C8020020C80200204FF0000200B513460C
:1001D00094469646203922BFA0E80C50A0E80C5067
:1001E000B1F12001BFF4F7AF090728BFA0E80C5018
:1001F00048BF0CC05DF804EB890028BF40F8042B11
:1002000008BF704748BF20F8022B11F0804F18BF7D
:1002100000F8012B7047704770477047754600F033
:100220002BF8AE4605006946534620F00700854688
:1002300018B020B5FFF7B6FFBDE820404FF000062C
:100240004FF000074FF000084FF0000B21F00701BE
:10025000AC46ACE8C009ACE8C009ACE8C009ACE801
:10026000C0098D46704710B50446AFF300802046A4
:10027000BDE81040FFF781BF0048704768000020CC
:1002800001491820ABBEFEE7260002007047FEE7DA
:10029000704770B504460D4621680020486220462C
:1002A00000F056FC2068416AA942FCD32046BDE814
:1002B000704000F075BC000070B5044600F004F911
:1002C0000546601C02D004480078044400F0FCF8A5
:1002D000401BA042FAD370BD100000202DE9F84F5A
:1002E000DFF8B891002409F1040A0AF1040B23464F
:1002F0000F270BF1040EC9E00125A5402A40AA42B0
:100300007DD1674ED1F804C0ACEB0608B44532D0BD
:1003100014DCBCF1030F3AD009DCBCF1000F2AD089
:10032000BCF1010F1CD0BCF1020F31D11DE0BCF1BA
:10033000110F17D0BCF1120F2AD119E0B8F5881FA0
:1003400019D006DCB8F5803F15D0B8F5801F1FD155
:1003500011E0B8F5001F0ED0B8F5041F18D10AE05F
:10036000CB6815E0CB681B1D12E0CB6808330FE0AB
:10037000CB680C330CE08B682BB1012B4FF00803DA
:1003800003D0456104E0042302E0056100E000239E
:10039000FF2A01D8064601E000F104064FEA840571
:1003A00001D9A5F12005D6F8008007FA05FC28EA56
:1003B0000C0803FA05F548EA0508C6F800804D6800
:1003C000ED0062D5374DAE6946F00106AE61AD690C
:1003D00024F0030605F001050095334D06EB050CEE
:1003E000DCF80850A607360F07FA06F825EA0805D4
:1003F000DFF8B880404503D14FF0000817E044E033
:10040000DFF8AC80404502D14FF001080FE0DFF883
:10041000A480404502D14FF0020808E0DFF8988040
:10042000404502D14FF0030801E04FF0040808FAFC
:1004300006F848EA0508CCF808804D68D9F800604D
:10044000ED034D4601D5164300E096432E604D68FE
:10045000DAF80060AD03554601D5164300E0964337
:100460002E604D68DBF80060ED025D4601D5164355
:1004700000E096432E604D68DEF80060AD027546E0
:1004800001D5164300E096432E60641C0D682A4691
:10049000E5407FF431AFBDE8F88F00000004014073
:1004A000000011100010024000000140000801404F
:1004B000000C014000100140001401400AB101612C
:1004C00070470904FBE7000001488068704700009E
:1004D0001000002002488168027811448160704752
:1004E00010000020074810B5016841F010010160BC
:1004F000032000F075F80F2000F006F800F024F853
:10050000002010BD0020024070B50D4D04464FF490
:100510007A712878B1FBF0F00A490968B1FBF0F074
:1005200000F0CCFA48B9102C07D200222146501E08
:1005300000F036F800206C6070BD012070BD000036
:10054000100000201C0000200C4808B5816941F013
:1005500001018161816901F001010091C16941F0EE
:100560008051C161C06900F080500090044841682A
:1005700021F0E06141F00071416008BD00100240CF
:1005800000000140002809DB00F01F02012191401A
:100590004009800000F1E020C0F800117047000021
:1005A000F0B40E4B1B680C46C3F30223C3F10705DE
:1005B000042D00D90425191D072901D2002300E0CC
:1005C000DB1E012606FA05F1491E214099409E4096
:1005D000761E16403143F0BC00F0E4BE0CED00E0A6
:1005E000064900F0070208684FF6FF03184040EA8A
:1005F0000220034A10430860704700000CED00E041
:100600000000FA052DE9F0470F46050061D0434E82
:10061000306800F00700B84209D2306820F00700C7
:1006200038433060306800F00700B84251D1286884
:100630003B4C810712D5400703D5606840F4E06069
:1006400060602878000703D5606840F460506060FF
:100650006068A96820F0F000084360602878C0074F
:1006600028D06868012810D02168022810D0890796
:1006700000292EDA616821F0030101436160FFF770
:1006800023FF804641F288390DE021688903EFE7B6
:100690008901EDE7FFF718FFA0EB0801494502D9F2
:1006A0000320BDE8F0876068696800F00C00B0EBDB
:1006B000810FEFD1306800F00700B8420BD93068E5
:1006C00020F0070038433060306800F00700B8427F
:1006D00001D00120E5E72878400705D56068E96882
:1006E00020F4E060084360602878000706D5606861
:1006F000296920F4605040EAC100606000F018F8F9
:100700006168084AC1F30311515CC840064908609A
:1007100006480068FFF7F8FE0020C2E7002002400C
:1007200000100240681600081C0000201400002081
:1007300012A185B00FC98DE80F0014A0144A0068FB
:1007400004905168134801F00C03042B10D0082BBF
:100750000ED1C1F38343C9031DF803000AD55168C4
:1007600004AAC1F34041515C0A4A5043B0FBF1F086
:1007700005B0704708494843FAE700000203040542
:10078000060708090A0B0C0D0E0F101001020000DD
:100790000010024000127A0000093D002DE9F84FD8
:1007A000040070D02078C04DC00749D06868C0F3FD
:1007B0008100012807D06868C0F38100022809D1B0
:1007C0006868C00306D52868800339D560680028AA
:1007D000E7D035E06068B0F5803F0BD010B1B0F5E0
:1007E000A02F11D0286820F480302860286820F4D9
:1007F000802002E0286840F480302860606890B172
:10080000FFF762FE06460AE0286840F48020286070
:10081000F0E700BFFFF758FE801B642873D82868F4
:100820008003F7D50CE0FFF74FFE064605E000BF5A
:10083000FFF74AFE801B6428F0D828688003F7D4AD
:1008400020789A4E80074FF001094FF0000839D503
:10085000686810F00C0F07D06868C0F381000228A8
:1008600009D16868C00306D42868800714D52069B8
:10087000012808D110E02069B0B1C6F80090FFF758
:1008800023FE074605E00AE1FFF71EFEC01B022813
:10089000C4D828688007F7D52868616920F0F80077
:1008A00040EAC10028600DE0C6F80080FFF70CFEAA
:1008B000074604E0FFF708FEC01B022823D828687B
:1008C0008007F7D4207800072CD57948A169D9B1E1
:1008D000C0F80090FFF7F8FD074604E0FFF7F4FDCD
:1008E000C01B02280FD8686A8007F7D571484FF4FB
:1008F000FA510068B0FBF1F0009000BF0098411E73
:100900000091FAD20EE080E0C0F80080FFF7DCFD35
:10091000074604E0FFF7D8FDC01B022875D8686AB7
:100920008007F7D42078400760D5E8690027C00029
:1009300008D4E86940F08050E861E869012700F0D8
:10094000805000905C480168C90513D40168834653
:1009500041F480710160FFF7B7FD824606E000BFF9
:10096000FFF7B2FDA0EB0A0064284ED8DBF80000C8
:10097000C005F5D5E06801280AD008B1052813D0D4
:10098000286A20F001002862286A20F0040002E0B2
:10099000286A40F001002862E06841F2883B98B183
:1009A000FFF792FD82460BE0286A40F004002862BF
:1009B000EEE700BFFFF788FDA0EB0A0159455AD8C2
:1009C000286A8007F6D50CE0FFF77EFD824605E039
:1009D000FFF77AFDA0EB0A0159454CD8286A800739
:1009E000F6D41FB1E86920F08050E861E06988B36F
:1009F0006968C1F38101022944D00228C6F86080E9
:100A000004D0FFF761FD044638E034E0FFF75CFDF9
:100A1000074604E0FFF758FDC01B02282BD82868C2
:100A20008001F7D4206AB0F5803F05D16868A168DD
:100A300020F4003008436860D4E90801084369687D
:100A400021F4741108436860C6F86090FFF73CFD1C
:100A5000044606E025E000BFFFF736FD001B022834
:100A600009D828688001F7D51BE000BFFFF72CFDEF
:100A7000001B022802D90320BDE8F88F28688001F6
:100A8000F4D40EE00128F7D06868226A00F48031BF
:100A9000914204D1616A00F47010884201D00120B3
:100AA000EAE70020E8E700000010024000004242B0
:100AB000800442421C0000200070004010B5401E1F
:100AC000B0F1807F01D3012010BD4FF0E0246061C0
:100AD0000F21601700F066FC0020A0610720206154
:100AE000002010BD7047704770B590F83C20012A77
:100AF00026D0012480F83C40022280F83D20036883
:100B00005A689D6822F070060A6832435A600D4B9D
:100B100002689A4208D0B2F1804F05D00A4B9A423F
:100B200002D00A4B9A4204D1496825F08003194348
:100B3000916080F83D40002180F83C10084670BD6F
:100B4000022070BD002C014000040040000800405D
:100B500090F83D10012901D001207047022180F852
:100B60003D1000680B49884208D0B0F1804F05D095
:100B70000949884202D00949884204D1816801F0BC
:100B80000701062903D0016841F00101016000203E
:100B900070470000002C01400004004000080040A5
:100BA00001680A6A41F211131A4207D10A6A9B10BE
:100BB0001A4203D10A6822F001020A60012180F87A
:100BC0003D1000207047000070B50546007F0128E9
:100BD00024D1244C607878B101281FD10021284607
:100BE00000F056FAA060296800264E6261688842CB
:100BF00015D9A0EB01001AE04FF00001284600F0E3
:100C000047FA6060012060702868016A21F00A01DB
:100C100001622868016A41F00201016270BD01D3DE
:100C2000E06805E0A0EB01004FF6FF710844E060CA
:100C300000F009FC0C4A0D4B00F018FC00F0D6FB4C
:100C4000207066702868016A21F00A010162286834
:100C5000016A016206480068C16821F00201C160B2
:100C600070BD0000000000209CC420B07268913F5D
:100C7000200000202DE9F041054690F83C000C468C
:100C8000012836D0012085F83C008AB3042A42D0DE
:100C90002868082A51D0D4E90023E168066A26F4BE
:100CA00080560662C669076A26F4407646EA032340
:100CB0004FF6FF7606EA013123F4704319434FF4EF
:100CC000005627F4005306EA02321A43C161026259
:100CD0002868C16921F44061C1612868C169A268BE
:100CE00041EA0221C161002085F83C00BDE8F081A5
:100CF00001E00220FAE7D4E90012E368286800F076
:100D000009FB2868816921F00C01816128688169EB
:100D1000A26811430FE0D4E90012E368286800F0EC
:100D200025FB2868816921F4406181612868816917
:100D3000A26841EA02218161D5E7D4E90027267B38
:100D4000016A21F480710162C169036A21F0030123
:100D5000394321F0F00731074FF4007647EA11617B
:100D600023F4007306EA02221A43C1610262286872
:100D7000C16921F00C01C1612868C169A2681143F1
:100D8000B0E710B5040003D094F83D0010B107E0BF
:100D9000012010BD002084F83C00204600F01EF821
:100DA000022084F83D00211D206800F06FFA012028
:100DB00084F8460084F83E0084F83F0084F8400040
:100DC00084F8410084F8420084F8430084F8440029
:100DD00084F8450084F83D00002010BD00B585B0C2
:100DE000002100910191029103910068124988420B
:100DF0001FD11248816941F400618161816901F468
:100E000000610491816941F0040181618069694652
:100E100000F0040004904FF4807000900848FFF741
:100E20005DFA002211461B20FFF7BAFB1B20FFF7DB
:100E3000A9FB05B000BD0000002C014000100240DD
:100E40000008014010B5044651B104290DD008290D
:100E500010D094F8410094F84520012811D10EE0FB
:100E600094F83E0094F84220F7E794F83F0094F895
:100E70004320F2E794F8400094F84420EDE7012A7B
:100E800001D0012010BD022051B1042911D0082940
:100E900018D084F8410084F845000C291BD136E0B5
:100EA00084F83E0084F842002068C26842F00202E2
:100EB00010E084F83F0084F843002068C26842F0E4
:100EC000040207E084F8400084F844002068C26807
:100ED00042F00802C2600122206800F00DFA0E49BB
:100EE0002068884208D0B0F1804F05D00B49884275
:100EF00002D00B49884204D1816801F0070106291C
:100F000003D0016841F001010160002010BD20689C
:100F1000C26842F01002DDE7002C014000040040EE
:100F20000008004070B50446006801694FF00005F4
:100F3000C943890715D4C168C943890711D4E91E7B
:100F4000016101202077206880698007204602D057
:100F5000FFF73AFE04E000F098F8204600F096F81B
:100F6000257720680169C943490717D4C168C94377
:100F7000490713D46FF00401016102202077206833
:100F8000806910F4407F204602D0FFF71DFE04E088
:100F900000F07BF8204600F079F825772068016999
:100FA000C943090716D4C168C943090712D46FF0B1
:100FB00008010161042020772068C069800720466D
:100FC00002D0FFF701FE04E000F05FF8204600F0D9
:100FD0005DF8257720680169C943C90617D4C1683F
:100FE000C943C90613D46FF01001016108202077AE
:100FF0002068C06910F4407F204602D0FFF7E4FD6E
:1010000004E000F042F8204600F040F82577206820
:101010000169C943C90708D1C168C943C90704D1D7
:10102000891E0161204600F032F820680169C94339
:10103000090609D4C168C943090605D46FF08001C7
:1010400001612046FFF74EFD20680169C94349064A
:1010500009D4C168C943490605D46FF04001016154
:10106000204600F02AF820680169C94389060BD49C
:10107000C168C943890607D46FF020010161204689
:10108000BDE87040FFF72FBD70BD704770477047D7
:101090000246002041B1042909D008290AD00C29B0
:1010A00001D11068006C70471068406B7047106881
:1010B000806B70471068C06B70477047FEE7000098
:1010C0002DE9F04385B00024254800940194029452
:1010D0000394816941F010018161816901F010017F
:1010E0000491816941F020018161816901F0200151
:1010F0000491816941F008018161816901F0080171
:101100000491816941F0040181618069DFF85480B4
:1011100000F004004FF40055049000222946404698
:10112000FFF7CCF9DFF84090AF000022394648467F
:10113000FFF7C4F90095022601250396CDE9015475
:1011400069464046FFF7CAF800970396CDE9015477
:1011500069464846FFF7C2F805B0BDE8F0830000D5
:101160000010024000100140000C014010B586B094
:10117000002419480594049400940194029415499C
:10118000039401604721C0E901144FF6FF71C0E9E3
:10119000031444618461FFF7F4FD08B172B6FEE701
:1011A000049404A90C480594FFF79EFC08B172B69C
:1011B000FEE70120CDE9004002940022694606487E
:1011C0000394FFF757FD002801D072B6FEE706B082
:1011D00010BD0000002C014020000020FEE7FEE7CB
:1011E0007047704770B501220A4DD4032146284646
:1011F000FFF764F90A210848FFF74BF8002221465F
:101200002846FFF75BF904480068C16841F0020115
:10121000C16070BD000C014020000020FFF75AB9EA
:1012200030B58FB028216846FEF7CEFF14210AA8FA
:10123000FEF7CAFF01210804CDE900100024029442
:1012400002250491CDE907504FF4E010099068465B
:10125000FFF7A4FA08B172B6FEE70F20CDE90A0540
:101260004FF48060CDE90C4002210AA80E94FFF7EC
:10127000C9F9002801D072B6FEE70FB030BD704743
:101280000148FFF74FBE000020000020F0B50268C3
:10129000164B174C174D4FF08047984205D0B84277
:1012A00003D0A04201D0A84203D122F070064A68C0
:1012B0003243984205D0B84203D0A04201D0A842A0
:1012C00003D122F44074CA6822434C6922F08002A0
:1012D000224302608A68C2620A688262984201D12F
:1012E0000969016301214161F0BD0000002C01404A
:1012F000000400400008004010B501F01F03012168
:10130000046A99408C430462016A9A401143016265
:1013100010BD000070B5046A24F001040462846901
:10132000056A0F4EB04208D0B0F1804F05D00D4E87
:10133000B04202D00C4EB04203D124F00304144357
:1013400001E044F001041A0724F0F00444EA1262B8
:1013500025F00A0301F00A0119438261016270BDA0
:10136000002C0140000400400008004030B5046A31
:1013700024F0100404628469056A24F4407444EA89
:10138000022222F470444FF6FF7202EA0332224333
:10139000A02425F0A00304EA01111943826101622F
:1013A00030BDFEE70907090E002804DB00F1E0204C
:1013B00080F80014704700F00F0000F1E02080F882
:1013C000141D7047FFF78EF8FFF72AFFFFF778FE2E
:1013D000FFF7CCFE00210448FFF734FDFFF702FFC2
:1013E0000A20FEF769FFF9E7200000204FEA1153B9
:1013F000A3F58063D3F11E03A8BFD3F1200C08DB53
:101400004FF0004242EAC12252EA505232FA03F04F
:10141000704709420BD4102BC4BF0020704703F55E
:10142000787CBCF1FF3F05D04FF0FF3070474FF0A4
:101430000000704770B500F0C3F800BF49922480E7
:1014400000207047F0E7B0FA80F310FA03F10AD0F9
:10145000C3F11D0303F580634FEA41504FEA035285
:1014600002EBD12170474FF000007047DFF848C110
:1014700070B51CEA111E1EBF1CEA13159EEA0C0F64
:1014800095EA0C0F00F06F8081EA030423EA4C1305
:101490004EEAD47E21EA4C1141F4801143F48013CA
:1014A000AE44A1FB024CA0FB0365AEF17F7E361972
:1014B00055EB0C05A1FB034C4CF10003A0FB021CF7
:1014C00016EB0C06654153F10003094218BF46F0C4
:1014D000010613F4007F0BD14FEA03314FEA0530C8
:1014E000340341EA155140EA16506FF003020AE056
:1014F0004FEAC3214FEAC520F40241EA555140EAC0
:1015000056506FF0020202EB2E4201EB025585EAC3
:10151000CE710AD05FEA440C18BF24F0004450F1A9
:10152000000041F1000120EAD47040F2FE7C6245E7
:1015300000D270BDA84214BF4FF080444FF0404429
:10154000002E08BF0024BEF1806FA8BFA1F1C041EA
:10155000BDE8704080F282804FF0000001F1C04190
:1015600001F0004170479EEA0C0F0CEA131518BFFA
:1015700095EA0C0F06D04FF0000081EA030E0EF042
:10158000004170BD00F01CF88900013E00F007B872
:1015900000F009B84FEA430C5FEA5C5C08D081EACE
:1015A000030100F05BB84FEA410C5FEA5C5CF6D1E6
:1015B0004FF00000014970470000FF070000F87F6E
:1015C0000EF1020E2EF0030E5EF8046B364205D4C7
:1015D000012A43EB030515F5001F12D8012841EB42
:1015E000010C1CF5001F0CD80ED14FEAD17C15F56B
:1015F000001F0CEB4C0C0CF1020C08BF4CEBD37C25
:1016000004E04FF0080C01E04FEAD37C0CEB4C05F2
:1016100026FA05F606F00706B6F1040C06D20EEB24
:10162000860CBDE870404CF0010C6047DFE80CF020
:10163000090B02024FF000414FF00000A1F500211C
:1016400070BD19461046012851EB010418BFD4F5AE
:10165000001484BF002001F0004170BD0808A0F50F
:1016600000114FEA31017047000000000000000047
:10167000010203040607080998160008000000206C
:101680002000000028010008B816000820000020F3
:10169000A80600004401000800000000000000004F
:1016A0000000000000000000010000001000000029
:0816B000000000000024F4001A
:04000005080000ED02
:00000001FF
